:1000000057EF01F0FFFFFFFF0EC080F00CC07FF044
:100010000BC07EF00AC07DF009C07CF008C07BF008
:1000200005C07AF004C079F003C078F002C077F020
:1000300001C076F000C075F0E9CF2AF0EACF2BF0CE
:10004000E1CF2CF0E2CF2DF0F29E80A023D0150658
:10005000090E166E000E176E020E0C6EFF0E0B6E62
:10006000FF0E0A6E0C2E01D007D00B2E01D003D04C
:100070000A2EFED7FAD7F6D7060E0B6EFF0E0A6EC3
:100080000B2E01D003D00A2EFED7FAD70A0E0A6E25
:100090000A2EFED780A282D01806196A1A6A1B6A35
:1000A0001C6A41D0500E046E000E056E23C000F095
:1000B00024C001F043EC0EF061EC0EF000C01FF024
:1000C00001C020F002C021F003C022F042D00001A4
:1000D000780E046E000E056E23C000F024C001F0FF
:1000E00043EC0EF061EC0EF000C01FF001C020F0F8
:1000F00002C021F003C022F02CD00001A00E046E3B
:10010000000E056E23C000F024C001F043EC0EF099
:1001100061EC0EF000C01FF001C020F002C021F021
:1001200003C022F016D00001000E1E1802E1000EDE
:100130001D180001B7E0000E1E1802E1010E1D1887
:100140000001C5E0000E1E1802E1020E1D1800019C
:10015000D4E00001236A246A0A0E166E000E176EA0
:10016000020E0C6EFF0E0B6EFF0E0A6E0C2E01D0EF
:1001700007D00B2E01D003D00A2EFED7FAD7F6D720
:10018000060E0B6EFF0E0A6E0B2E01D003D00A2E48
:10019000FED7FAD70A0E0A6E0A2EFED7000180A4F7
:1001A00008D0010E166E000E176E196A1A6A1B6AC5
:1001B0001C6A000180A608D0020E166E000E176E93
:1001C000196A1A6A1B6A1C6A000180A808D0030E0B
:1001D000166E000E176E196A1A6A1B6A1C6A0001F5
:1001E00080AA08D0040E166E000E176E196A1A6ADD
:1001F0001B6A1C6A000181AC08D0050E166E000E49
:10020000176E196A1A6A1B6A1C6A000181A208D05B
:10021000060E166E000E176E196A1A6A1B6A1C6AA1
:10022000000181A408D0070E166E000E176E196A21
:100230001A6A1B6A1C6A000181AE08D0080E166E8D
:10024000000E176E196A1A6A1B6A1C6A0001F2A472
:100250000AD0234A242A010E1926000E1A221B2234
:100260001C223D0ED66E0001B00EF26E2AC0E9FFD0
:100270002BC0EAFF2CC0E1FF2DC0E2FF80C00EF0D2
:100280007FC00CF07EC00BF07DC00AF07CC009F08E
:100290007BC008F07AC005F079C004F078C003F0A4
:1002A00077C002F076C001F075C000F01100610E59
:1002B0000101016F730E026F660E036F640E046F0F
:1002C000610E056F730E066F660E076F640E086F82
:1002D000610E096F730E0A6F660E0B6F730E0C6F53
:1002E000610E0D6F640E0E6F660E0F6F106B610E58
:1002F000116F730E126F660E136F610E146F730E13
:10030000156F660E166F610E176F730E186F660EFF
:10031000196F610E1A6F730E1B6F660E1C6F730ED2
:100320001D6F610E1E6F660E1F6F610E206F730EC4
:10033000216F640E226F236B530E246F610E256FA5
:100340006C0E266F750E276F640E286F6F0E296F67
:10035000730E2A6F2B6B540E2C6F6F0E2D6F640E65
:100360002E6F6F0E2F6F200E306F630E316F6F0E7A
:10037000326F720E336F720E346F650E356F630E0F
:10038000366F740E376F6F0E386F396B430E3A6FDE
:100390006F0E3B6F6D0E3C6F690E3D6F650E3E6FCD
:1003A0006E0E3F6F7A0E406F610E416F200E426FEE
:1003B000650E436F6C0E446F200E456F6A0E466FDC
:1003C000750E476F650E486F670E496F6F0E4A6F67
:1003D0004B6B540E4C6F720E4D6F650E4E6F730E5D
:1003E0004F6F506B440E516F6F0E526F730E536F01
:1003F000546B550E556F6E0E566F6F0E576F586BD0
:10040000410E596F640E5A6F650E5B6F6C0E5C6F18
:10041000610E5D6F6E0E5E6F740E5F6F650E606FC6
:10042000A10E616FA10E626FA10E636F646B500E1F
:10043000656F6C0E666F610E676F790E686F650E83
:10044000696F720E6A6F6B6B500E6C6F720E6D6F10
:100450006F0E6E6F670E6F6F720E706F610E716F41
:100460006D0E726F736B480E746F610E756F730E45
:10047000766F200E776F700E786F650E796F720E43
:100480007A6F640E7B6F690E7C6F640E7D6F6F0EEA
:100490007E6F7F6B480E806F610E816F730E826F6F
:1004A000200E836F670E846F610E856F6E0E866FF0
:1004B000610E876F640E886F6F0E896F8A6B480EAE
:1004C0008B6F610E8C6F730E8D6F200E8E6F630EAF
:1004D0008F6F6F0E906F6D0E916F650E926F740E31
:1004E000936F690E946F640E956F6F0E966F976B96
:1004F000660E986F610E996F6C0E9A6F740E9B6FFB
:10050000610E9C6F2C0E9D6F200E9E6F700E9F6F64
:10051000690EA06F650EA16F720EA26F640EA36FBD
:10052000650EA46F730EA56FA66B010EA76F010E6B
:10053000A86F110EA96F010EAA6FAB6BAC6BAD6B00
:10054000286A296AF26A186A156AFF0E166EFF0E8B
:10055000176E196A1A6A1B6A1C6AAC6BAD6B0B0EBC
:100560000C6EFF0E0B6EFF0E0A6E0C2E01D007D024
:100570000B2E01D003D00A2EFED7FAD7F6D7330EB2
:100580000B6EFF0E0A6E0B2E01D003D00A2EFED783
:10059000FAD7880E0A6E0A2EFED7F7EC0DF0010E80
:1005A0006E6E010E6F6E240E706E010E716ED9ECC0
:1005B0000CF090EC06F0836A0B0E0C6EFF0E0B6EC7
:1005C000FF0E0A6E0C2E01D007D00B2E01D003D0E7
:1005D0000A2EFED7FAD7F6D7330E0B6EFF0E0A6E31
:1005E0000B2E01D003D00A2EFED7FAD7880E0A6E42
:1005F0000A2EFED7A7EC05F000C0ACF1000E0101F9
:10060000AD6FACC11DF0ADC11EF067EC07F000C0CE
:1006100018F000C015F0010E746E8FEC0CF0010E96
:100620006E6E010E6F6E2C0E706E010E716ED9EC37
:100630000CF0020E6E6E010E6F6E3A0E706E010EB1
:10064000716ED9EC0CF00B0E0C6EFF0E0B6EFF0EE4
:100650000A6E0C2E01D007D00B2E01D003D00A2E2B
:10066000FED7FAD7F6D7330E0B6EFF0E0A6E0B2E9F
:1006700001D003D00A2EFED7FAD7880E0A6E0A2EB2
:10068000FED7010E746E8FEC0CF0010E6E6E010E33
:100690006F6E4C0E706E010E716ED9EC0CF0060E82
:1006A0000C6EFF0E0B6EFF0E0A6E0C2E01D007D0E3
:1006B0000B2E01D003D00A2EFED7FAD7F6D71A0E8A
:1006C0000B6EFF0E0A6E0B2E01D003D00A2EFED742
:1006D000FAD7420E0A6E0A2EFED7010E746E8FEC08
:1006E0000CF0010E6E6E010E6F6E510E706E010EEB
:1006F000716ED9EC0CF0060E0C6EFF0E0B6EFF0E39
:100700000A6E0C2E01D007D00B2E01D003D00A2E7A
:10071000FED7FAD7F6D71A0E0B6EFF0E0A6E0B2E07
:1007200001D003D00A2EFED7FAD7420E0A6E0A2E47
:10073000FED7010E746E8FEC0CF0010E6E6E010E82
:100740006F6E550E706E010E716ED9EC0CF0060EC8
:100750000C6EFF0E0B6EFF0E0A6E0C2E01D007D032
:100760000B2E01D003D00A2EFED7FAD7F6D71A0ED9
:100770000B6EFF0E0A6E0B2E01D003D00A2EFED791
:10078000FAD7420E0A6E0A2EFED7010E6E6E010EC9
:100790006F6E590E706E010E716ED9EC0CF0B00ECA
:1007A000F26E286A296A196A1A6A1B6A1C6AFF0EA5
:1007B000166EFF0E176E000E1F6E000E206E000EDE
:1007C000216E7F0E226E236A246A060E0C6EFF0EC7
:1007D0000B6EFF0E0A6E0C2E01D007D00B2E01D02F
:1007E00003D00A2EFED7FAD7F6D71A0E0B6EFF0EDD
:1007F0000A6E0B2E01D003D00A2EFED7FAD7420E76
:100800000A6E0A2EFED7010E746E8FEC0CF0010EEC
:100810006E6E080E6F6E650E706E010E716ED9EC05
:100820000CF0020E6E6E080E6F6E6C0E706E010E86
:10083000716ED9EC0CF015C06EF0000E6F6EA7C192
:1008400070F0A8C171F0DEEC0AF018C06EF0000E76
:100850006F6EA9C170F0AAC171F0DEEC0AF0010E52
:100860006E6E010E6F6EA7C170F0A8C171F0D9EC69
:100870000CF0020E6E6E010E6F6EA9C170F0AAC16F
:1008800071F0D9EC0CF0BF0E2E6E000E2F6EACC1C5
:1008900030F0ADC131F037EC09F0196A1A6A1B6A01
:1008A0001C6A0101AB6B010118500008D8B016D1C9
:1008B00015500008D8B012D1AB53D8A40FD1000EF8
:1008C0001C5C08E1000E1B5C05E1000E1A5C02E1F5
:1008D000C80E195C010102E3010EAB6F0101165055
:1008E0001710D8B4FAD0B5D00101AF0E2E6E000E9D
:1008F0002F6EACC130F0ADC131F037EC09F0FF0E16
:10090000166EFF0E176EE9D0AF0E2E6E000E2F6E14
:10091000ACC130F0ADC131F037EC09F0FF0E166E0E
:10092000FF0E176EDAD0AC0E2E6E000E2F6EACC11D
:1009300030F0ADC131F037EC09F0FF0E166EFF0E4E
:10094000176ECBD0C80E2E6E000E2F6EACC130F0DD
:10095000ADC131F037EC09F0FF0E166EFF0E176EC9
:10096000BCD0960E2E6E000E2F6EACC130F0ADC115
:1009700031F037EC09F0FF0E166EFF0E176EADD09A
:10098000A50E2E6E000E2F6EACC130F0ADC131F051
:1009900037EC09F0FF0E166EFF0E176E9ED0B40EE8
:1009A0002E6E000E2F6EACC130F0ADC131F037ECC1
:1009B00009F0FF0E166EFF0E176E8FD0B20E2E6E60
:1009C000000E2F6EACC130F0ADC131F037EC09F044
:1009D000FF0E166EFF0E176E80D015C02EF0000EA3
:1009E0002F6EA7C130F0A8C131F03EEC0BF0010E24
:1009F0006E6E010E6F6EA7C170F0A8C171F0D9ECD8
:100A00000CF0FF0E166EFF0E176E67D018C02EF09A
:100A1000000E2F6EA9C130F0AAC131F03EEC0BF0F0
:100A2000BF0E2E6E000E2F6EACC130F0ADC131F096
:100A300037EC09F0020E6E6E010E6F6EA9C170F0F8
:100A4000AAC171F0D9EC0CF0FF0E166EFF0E176EF6
:100A500044D0000E171802E1010E1618D8B444D77E
:100A6000000E171802E1020E1618D8B44DD7000E6A
:100A7000171802E1030E1618D8B455D7000E171830
:100A800002E1040E1618D8B45DD7000E171802E163
:100A9000050E1618D8B465D7000E171802E1060E19
:100AA0001618D8B46DD7000E171802E1070E1618E5
:100AB000D8B475D7000E171802E1080E1618D8B46E
:100AC0007DD7000E171802E1090E161886E0000EF9
:100AD000171802E10A0E161899E0E5D6010E746E99
:100AE0008FEC0CF0746A5AEC0DF01850000A0AE111
:100AF000010E6E6E010E6F6E740E706E010E716ED1
:100B0000D9EC0CF01550000A0AE1010E6E6E010ED0
:100B10006F6E800E706E010E716ED9EC0CF00101DB
:100B2000AB5314E0010E6E6E010E6F6E8B0E706E85
:100B3000010E716ED9EC0CF0020E6E6E010E6F6E2E
:100B4000980E706E010E716ED9EC0CF0FFD7530E3B
:100B50002E6E650E2F6E6C0E306E650E316E630E4E
:100B6000326E630E336E690E346E6F0E356E6E0E1E
:100B7000366E650E376E200E386E6E0E396E690E4B
:100B80003A6E760E3B6E650E3C6E6C0E3D6E3E6AA6
:100B90004E0E3F6E690E406E760E416E650E426ED1
:100BA0006C0E436E200E446E310E456E466A4E0E3C
:100BB000476E690E486E760E496E650E4A6E6C0E73
:100BC0004B6E200E4C6E320E4D6E4E6A4E0E4F6EB8
:100BD000690E506E760E516E650E526E6C0E536E2F
:100BE000200E546E330E556E566A576A010E746E9F
:100BF0008FEC0CF0010E6E6E010E6F6E2E0E706E8D
:100C0000000E716ED9EC0CF081B687D081A82AD085
:100C1000572A030E046E57C000F09BEC0BF008C07F
:100C200000F000C057F0050E0C6EFF0E0B6EFF0EAD
:100C30000A6E0C2E01D007D00B2E01D003D00A2E45
:100C4000FED7FAD7F6D7960E0B6EFF0E0A6E0B2E56
:100C500001D003D00A2EFED7FAD7BD0E0A6E0A2E97
:100C6000FED70000000182AE2AD05706800E57182A
:100C7000006E800E000A005C02E2020E576E000158
:100C8000050E0C6EFF0E0B6EFF0E0A6E0C2E01D0C1
:100C900007D00B2E01D003D00A2EFED7FAD7F6D7F5
:100CA000960E0B6EFF0E0A6E0B2E01D003D00A2E8D
:100CB000FED7FAD7BD0E0A6E0A2EFED7000000013D
:100CC00022D00001020E6E6E010E6F6E3F0E706E2E
:100CD000000E716ED9EC0CF01FD0020E6E6E010E7C
:100CE0006F6E470E706E000E716ED9EC0CF014D062
:100CF000020E6E6E010E6F6E4F0E706E000E716EF4
:100D0000D9EC0CF009D05750000ADBE05750010A2B
:100D1000E4E05750020AECE077D757C000F0120029
:100D2000500E2E6E6F0E2F6E720E306E200E316EC4
:100D3000660E326E610E336E760E346E6F0E356E49
:100D4000720E366E200E376E640E386E650E396E7A
:100D50003A6A750E3B6E6E0E3C6E610E3D6E200E55
:100D60003E6E760E3F6E750E406E650E416E6C0ED9
:100D7000426E740E436E610E446E456A430E466EBB
:100D8000610E476E6C0E486E690E496E620E4A6EB9
:100D9000720E4B6E610E4C6E6E0E4D6E640E4E6E8C
:100DA0006F0E4F6E200E506E650E516E6C0E526EB1
:100DB000536A730E546E690E556E730E566E740E32
:100DC000576E650E586E6D0E596E610E5A6E5B6AE7
:100DD000530E5C6E690E5D6E730E5E6E740E5F6E0A
:100DE000650E606E6D0E616E610E626E636A630EFB
:100DF000646E610E656E6C0E666E690E676E620ED5
:100E0000686E720E696E610E6A6E640E6B6E6F0EA6
:100E10006C6E6D6A81A03FD080A017D0010E6E6EFF
:100E2000010E6F6E2E0E706E000E716ED9EC0CF00E
:100E3000020E6E6E010E6F6E3B0E706E000E716EC6
:100E4000D9EC0CF080B0FED725D0010E746E8FEC7B
:100E50000CF0010E6E6E010E6F6E460E706E000E7F
:100E6000716ED9EC0CF0020E6E6E010E6F6E540EA8
:100E7000706E000E716ED9EC0CF0A50E6E6E000E49
:100E80006F6E44EC0CF080A203D080B2FED702D08B
:100E900080A2FED7BFD7746A5AEC0DF0010E746EB3
:100EA0008FEC0CF0010E6E6E010E6F6E5C0E706EAC
:100EB000000E716ED9EC0CF0020E6E6E010E6F6EAC
:100EC000640E706E000E716ED9EC0CF01200320ED2
:100ED0002E6E300E2F6E300E306E316A560E326E20
:100EE000750E336E650E346E6C0E356E740E366E86
:100EF000610E376E730E386E200E396E640E3A6EC8
:100F0000650E3B6E200E3C6E6A0E3D6E750E3E6E9B
:100F1000650E3F6E670E406E6F0E416E3F0E426E65
:100F2000436A140E446E2E0E456E000E466E010E80
:100F3000746E8FEC0CF0010E6E6E010E6F6E320E41
:100F4000706E000E716ED9EC0CF0060E0C6EFF0E7A
:100F50000B6EFF0E0A6E0C2E01D007D00B2E01D0A7
:100F600003D00A2EFED7FAD7F6D71A0E0B6EFF0E55
:100F70000A6E0B2E01D003D00A2EFED7FAD7420EEE
:100F80000A6E0A2EFED781B661D081A825D0442AE8
:100F90004450000A02E1010E446E050E0C6EFF0E75
:100FA0000B6EFF0E0A6E0C2E01D007D00B2E01D057
:100FB00003D00A2EFED7FAD7F6D7960E0B6EFF0E89
:100FC0000A6E0B2E01D003D00A2EFED7FAD7BD0E23
:100FD0000A6E0A2EFED7000082AE23D04450010ACA
:100FE000D8A44406050E0C6EFF0E0B6EFF0E0A6EA3
:100FF0000C2E01D007D00B2E01D003D00A2EFED725
:10100000FAD7F6D7960E0B6EFF0E0A6E0B2E01D096
:1010100003D00A2EFED7FAD7BD0E0A6E0A2EFED7CF
:10102000000044C06EF0000E6F6E45C070F046C008
:1010300071F0DEEC0AF0020E6E6E010E6F6E45C0AE
:1010400070F046C071F0D9EC0CF09DD744C000F0B0
:1010500012000001086A096A000E07620364AFEF1C
:1010600008F0025006180A6E075003267E0ED8A01C
:1010700040EF08F0035ED8B0B4EF08F044EF08F09A
:10108000035ED8A0B9EF08F0028E068E02C00EF003
:1010900001C00BF000C00DF000500402F4CF0CF0C2
:1010A00001500502F4CF00F0F3CF08F00402F35032
:1010B0000C26F4500822000E00220D500502F350B9
:1010C0000C26F4500822000E002202500402F350B5
:1010D0000826F450002202500502016A000E012287
:1010E000F3500026F45001220D500602F35008265A
:1010F000F4500022026A000E012202220B50060266
:10110000F3500026F4500122000E02220E50060277
:10111000F3500126F450022202BE97EF08F0083681
:101120000036013602360306D8B4B9EF08F0AAEF4C
:1011300008F0D880800E08640030000E00220122E2
:101140000222D8A0AAEF08F0023201320032034A8C
:10115000B4EF08F00AAE029E000EBCEF08F0010EDC
:10116000B0EC0EF0BCEF08F0020EA3EC0EF0BCEFFA
:1011700008F0040E95EC0EF012006EC025F06FC062
:1011800026F025C0E1FF26C0E2FF120EE126E7921D
:10119000E790E794E79EE79CE79AE798120EE15EF6
:1011A000E792E790E794E79EE79CE79AE79877EC69
:1011B0000EF0E78AE788E782CCEC0EF0E79277EC56
:1011C0000EF0E78AE788E782CCEC0EF0E792B8EC05
:1011D0000EF0B8EC0EF0E78AE788E782CCEC0EF070
:1011E000E79277EC0EF0E78AE798E782CCEC0EF016
:1011F000E792B8EC0EF0E78AE798E782CCEC0EF0C5
:10120000E792E78EE79CE782CCEC0EF0E792B8EC31
:101210000EF0000EE76EE782CCEC0EF0E792E78E60
:10122000E78CE78AE788E782CCEC0EF0E792B8EC2F
:101230000EF0000EE76EE782CCEC0EF0E792E78846
:10124000E782CCEC0EF0E79277EC0EF0000EE76E42
:10125000E782CCEC0EF0E792E78CE78AE782CCECF1
:101260000EF0E792B8EC0EF0010E276E1200010EA0
:10127000046E2EC000F02FC001F0045005E00036CF
:1012800000900136FF0FFAD730C004F031C005F0EE
:1012900092EC0DF0640E046E000E056E79EC0AF00F
:1012A00000502E5E01502F5A1FC004F020C005F0E0
:1012B00021C006F022C007F0000E006E000E016E85
:1012C000000E026E7F0E036E11EC0AF0010ED8B014
:1012D000000E006E005216E02EC000F02FC001F08C
:1012E00021EC0EF01FC004F020C005F021C006F074
:1012F00022C007F029EC08F0A6EC09F000C02EF09F
:1013000001C02FF00001800E2F18006E800E2918EA
:10131000005C02E128502E5C000107E22EC06EF056
:101320002FC06FF0F6EC0BF010D0800E2918006E75
:10133000800E2F18005C02E12E50285C06E22EC0C1
:101340006EF02FC06FF044EC0CF0120000010B6A3D
:101350000350D8B4EDEF09F002500A6E028E8E0EE3
:10136000035E03AEF1EF09F0036C080E035CD8A036
:10137000CCEF09F0036E013602C001F0026A080EDC
:10138000035CD8A0CCEF09F0036E0136016A03506C
:10139000D8A4D890D6EF09F00350D8B4D6EF09F00E
:1013A000D89002320132032ED0EF09F00BBC01A01D
:1013B000E3EF09F0D8A0E3EF09F0012AD8B4022A3C
:1013C00002BE00EF0AF00AAE06EF0AF0021E011E8E
:1013D000012AD8B4022A06EF0AF0026A016A06EF6F
:1013E0000AF00B800BAE0AEF0AF0026A0AAE0AEFAF
:1013F0000AF0FF0E026E016E0A3602320AEF0AF0A0
:10140000010E0C6E86EC0EF00CEF0AF0000E0C6E66
:101410000CEF0AF0FF0E0C6E0150006E0250016ED0
:10142000120000010A6A0350D8A40A800750D8A409
:101430000A820A50D8B475EF0AF0030AD8B42EEF26
:101440000AF00AB029EF0AF006AE73EF0AF071EF66
:101450000AF002AE71EF0AF073EF0AF00250800B4F
:101460000A6E029E0650800B069E0A18D8B43FEF03
:101470000AF00A50D8B471EF0AF073EF0AF007507F
:10148000035CD8B449EF0AF0D8A065EF0AF06BEF1F
:101490000AF00650025CD8B453EF0AF0D8A065EF0A
:1014A0000AF06BEF0AF00550015CD8B45DEF0AF06A
:1014B000D8A065EF0AF06BEF0AF00450005CD8B4D6
:1014C00075EF0AF0D8B06BEF0AF00A52D8B473EF98
:1014D0000AF071EF0AF00A52D8B471EF0AF073EF14
:1014E0000AF0D8801200D8901200D880D884120058
:1014F000120000010D6A096A086A01500010D8B490
:10150000000C015005180A6E0ABE0D1E0B6A05AECE
:101510008FEF0AF0041E051E042AD8B4052A01AE76
:1015200097EF0AF0001E011E002AD8B4012A0150CC
:1015300005100A6E0ABEAFEF0AF0C6EC0DF00BB054
:10154000C6EF0AF00DAE000C001E011E002AD8B432
:10155000012A081E091E082AD8B4092A000C05AE63
:10156000C1EF0AF001BEBDEF0AF00150096E005054
:10157000086E016A006AA2EF0AF0016A006A002A96
:10158000000C011E001E0B2A9DEF0AF0082AD8B499
:10159000092A0450085CD8A4A2EF0AF00550095C9F
:1015A000D8A4A2EF0AF0096A086A002AD8B4012A6E
:1015B00001AEA2EF0AF00000FF0C120070C0E1FFC4
:1015C00071C0E2FF200EE66E010E7024E16E000E87
:1015D0007120E26E200EE66E020E7024E16E000EA7
:1015E0007120E26E200EE66E030E7024E16E000E96
:1015F0007120E26E200EE66E040E7024E16E000E85
:101600007120E26E300EE66E050E7024E16E000E63
:101610007120E26EE66A040E726E000E006E6F506C
:10162000005C02E16E50000828E272507024E16E06
:10163000000E7120E26E0A0E046E000E056E6EC082
:1016400000F06FC001F043EC0EF008C000F009C0DC
:1016500001F0300E002600C0E6FF0A0E046E000EF8
:10166000056E6EC000F06FC001F043EC0EF000C0DC
:101670006EF001C06FF07206D0D71200336A2EC030
:1016800034F02FC035F0800E2F18006E800E005CF5
:1016900002E1000E2E5C09E2010E336E2E500008AE
:1016A000346E2FC035F0E86A355634C06EF035C060
:1016B0006FF030C070F031C071F0DEEC0AF0060E51
:1016C000326E3250000817E232503024E16E000EC4
:1016D0003120E26E3204006E016A000E015A0050A1
:1016E0003024E96E01503120EA6EEECF00F000C0E8
:1016F000E6FF3206E6D730C0E1FF31C0E2FF200E40
:10170000E66E335217E0326A32503024E96E000E32
:101710003120EA6EEECF02F00250200A02E1322AB6
:10172000F3D7320632503024E16E000E3120E26EE3
:101730002D0EE66E120000010D6A086A0050D8B442
:10174000000C04180A6E0ABE0D1E0B6A04AEABEF45
:101750000BF0041E042A00A0B0EF0BF0001E002ABC
:10176000005004100A6E0ABED7EF0BF00450085E5A
:10177000003600340836045008260036060E0C6E7B
:1017800000340836045000B0085E00A00826003679
:101790000C2EC0EF0BF000A008260BB0E9EF0BF009
:1017A0000DAE000C001E002A081E082A000C04AE14
:1017B000E5EF0BF000BEE2EF0BF00050086E006AA0
:1017C000D0EF0BF0006A002A000C001E0B2AB6EFC7
:1017D0000BF0082A0450085CD8A4D0EF0BF0086A7C
:1017E000002A00AED0EF0BF0FF0C12006E50285C08
:1017F000006E6F502958016E010E046E045005E012
:10180000003600900136FF0FFAD7640E046E000E0A
:10181000056E79EC0AF000C070F001C071F0000EA6
:10182000011802E1000E0018000104E1050E706EBF
:10183000000E716E000170506E24026E71506F20A8
:10184000036E800E0318006E800E2918005C02E102
:101850002850025C00010FE27050285C006E71504D
:101860002958016E00C028F001C029F000C074F0B2
:101870005AEC0DF0DFD76EC028F06FC029F06EC0B3
:1018800074F05AEC0DF0120028506E5C006E295076
:101890006F58016E050E046E000E056E92EC0DF091
:1018A000640E046E000E056E79EC0AF000C070F054
:1018B00001C071F0000E011802E1000E00180001D5
:1018C00004E1050E706E000E716E000170506E5CCA
:1018D000026E71506F58036E800E2918006E800ED4
:1018E0000318005C02E10250285C00010FE2705016
:1018F0002824006E71502920016E00C028F001C01C
:1019000029F000C074F05AEC0DF0DFD76EC028F05B
:101910006FC029F06EC074F05AEC0DF0120025C0B3
:1019200000F026C001F000C025F001C026F025C05F
:10193000E9FF26C0EAFF745200E0EF92EF90EF9EBD
:10194000EF9CEF9AEF9874BEEF8E74BCEF8C74BA74
:10195000EF8A74B8EF882750010A03E1EF90B2EFE5
:101960000CF0EF80EF82CCEC0EF0745200E0EF92BE
:10197000EF90EF9EEF9CEF9AEF9874B6EF8E74B4F1
:10198000EF8C74B2EF8A74B0EF882750010A03E13C
:10199000EF90CCEF0CF0EF80EF82CCEC0EF0EF92FA
:1019A0002750010A03E177EC0EF002D0B8EC0EF0FC
:1019B00012000FD0800E6E6E19D0C00E6E6E16D053
:1019C000940E6E6E13D0D40E6E6E10D0800E6E6EAE
:1019D0000DD06E50010AEEE06E50020AEEE06E503D
:1019E000030AEEE06E50040AEEE0F0D76F04006EDA
:1019F0006E50002600C06EF000C074F08FEC0CF04A
:101A0000276A726A736A72507024E96E735071208B
:101A1000EA6EEECF00F000520DE072507024E96ED5
:101A200073507120EA6EEECF74F08FEC0CF0724AB6
:101A3000732AE9D7010E276E120000010C6A0E6AA4
:101A40000250D8A437EF0DF001C002F000C001F041
:101A5000006A0E860250D8A437EF0DF001C002F0E4
:101A6000016A0E960E880250D8B449EF0DF00E5060
:101A7000035ED8A4D8A04FEF0DF0D89002BE55EF6A
:101A80000DF0003601360236032E3EEF0DF04FEF1B
:101A90000DF0010E0C6EB0EC0EF059EF0DF0020ED1
:101AA0000C6E95EC0EF059EF0DF0040E0C6EBEECC2
:101AB0000EF01200CB50010F006E016A000E0122E1
:101AC00074C004F0000E056E92EC0DF0060E026E6E
:101AD00000C004F001C005F00250000105E005322D
:101AE0000432059EFF0FF9D704C000F000360090C5
:101AF000003600900036009000360090300E001442
:101B0000036E04C000F005C001F001320032019EF6
:101B100001320032019E00C0BEFF0F0EBD16035001
:101B2000BD121200000100500402F4CF09F0F3CFFF
:101B300008F001500502F4CF0BF0F3CF0AF000508B
:101B40000502F3500926F4500A22E86A0B220150DC
:101B50000402F3500926F4500A22E86A0B2205AE6B
:101B6000B6EF0DF000500A5C01500B5801AEBDEF0E
:101B70000DF004500A5C05500B5808C000F009C075
:101B800001F00AC002F00BC003F0120000010134A2
:101B9000083609360450085E0550D8A0053C095E99
:101BA000003601360F0E0C6E01340836093604502B
:101BB00000A0E2EF0DF0085E0550D8A0053C095EDC
:101BC000E7EF0DF008260550D8B0053C0926003691
:101BD00001360C2ED4EF0DF000B0F5EF0DF00450EF
:101BE00008260550D8B0053C0926000012003F0E1B
:101BF000926E2F0E926E870EC16E956ADF0E936EF7
:101C0000800E946E830E6E6E0F0E6F6EBDEC08F03C
:101C1000010E746E8FEC0CF00C0E746E8FEC0CF0E9
:101C2000C70ED56E3D0ED66EF26ACA90CA92410EAC
:101C3000CB6EC8EC0EF0C3EC0EF0746A5AEC0DF0EB
:101C40001200000100C008F00150006E016A026A33
:101C5000036A0B6A0C6A016A026A036A960E036ED3
:101C60000A6A00AE3AEF0EF0081E001E082AD8B429
:101C7000002A0A8E00C001F008C000F0086A026A5B
:101C80001DEC0DF012000001086A096A100E0C6EBE
:101C90000134083609360450085E0550D8A0053CCA
:101CA000095ED8B05BEF0EF0045008260550D8B09E
:101CB000053C0926D890003601360C2E48EF0EF070
:101CC000120000010050086E0150006E016A026AA5
:101CD000036A0B6A0C6A960E036E0A6A00C001F072
:101CE00008C000F0086A026A1DEC0DF01200080E30
:101CF0000B6EFF0E0A6E0B2E01D003D00A2EFED7FC
:101D0000FAD71E0E0A6E0A2EFED7120000010B80B3
:101D10000BAE93EF0EF0026A0AAEFF0E026E016E7A
:101D2000006E0A360232FF0E120000010B840BAE69
:101D3000A1EF0EF0010E036E026A016A006A0A3614
:101D40000232FF0E120000010B820BAEAEEF0EF05E
:101D500003680268016800680A360232FF0E12004A
:101D60000001026A016A006A086A036A000E120032
:101D7000100E0A6E0A2EFED70000120000010AAEF5
:101D8000029E000E12009494CA840C0EBD12120022
:101D9000BE6ABD98BD9A120000001200FFFFFFFF4F
:020000040030CA
:0E000000FFF9FDFEFFFFFFFFFFFFFFFFFFFF09
:00000001FF
